{
  "transactions": [
    {
      "hash": "0xb4cf9eb4f15ec6d8ce0299b9dba49daa050b47ab3a270b863785e0032e5fc0ae",
      "transactionType": "CALL",
      "contractName": null,
      "contractAddress": "0x8103b0a8a00be2ddc778e6e7eaa21791cd364625",
      "function": "createSubscription()",
      "arguments": [],
      "transaction": {
        "from": "0x71956ae243c8130a52ce35ce5d37a938f93cc06f",
        "to": "0x8103b0a8a00be2ddc778e6e7eaa21791cd364625",
        "gas": "0x1558c",
        "value": "0x0",
        "input": "0xa21a23e4",
        "nonce": "0x1",
        "chainId": "0xaa36a7"
      },
      "additionalContracts": [],
      "isFixedGasLimit": false
    },
    {
      "hash": "0xe88091c821cacd3bb36990c97528266f67a018f63b470d0e22a82874f536b9f0",
      "transactionType": "CALL",
      "contractName": "LinkToken",
      "contractAddress": "0x779877a7b0d9e8603169ddbd7836e478b4624789",
      "function": "transferAndCall(address,uint256,bytes)",
      "arguments": [
        "0x8103B0A8A00be2DDC778e6e7eaa21791Cd364625",
        "3000000000000000000",
        "0x0000000000000000000000000000000000000000000000000000000000002df4"
      ],
      "transaction": {
        "from": "0x71956ae243c8130a52ce35ce5d37a938f93cc06f",
        "to": "0x779877a7b0d9e8603169ddbd7836e478b4624789",
        "gas": "0x1b43f",
        "value": "0x0",
        "input": "0x4000aea00000000000000000000000008103b0a8a00be2ddc778e6e7eaa21791cd36462500000000000000000000000000000000000000000000000029a2241af62c0000000000000000000000000000000000000000000000000000000000000000006000000000000000000000000000000000000000000000000000000000000000200000000000000000000000000000000000000000000000000000000000002df4",
        "nonce": "0x2",
        "chainId": "0xaa36a7"
      },
      "additionalContracts": [],
      "isFixedGasLimit": false
    },
    {
      "hash": "0x1075d5c8bf5c6dbe4edd59b3cf6ce0f62873dfbcdb86280a10e29e04b7008b3d",
      "transactionType": "CREATE",
      "contractName": "Raffle",
      "contractAddress": "0xefccd9143bc23cdc5da30045d57b456d685aef57",
      "function": null,
      "arguments": [
        "10000000000000000",
        "30",
        "0x8103B0A8A00be2DDC778e6e7eaa21791Cd364625",
        "0x474e34a077df58807dbe9c96d3c009b23b3c6d0cce433e59bbf5b34f823bc56c",
        "11764",
        "500000"
      ],
      "transaction": {
        "from": "0x71956ae243c8130a52ce35ce5d37a938f93cc06f",
        "gas": "0xdad4e",
        "value": "0x0",
        "input": "0x61016060405234801561001157600080fd5b50604051610c79380380610c7983398101604081905261003091610087565b6001600160a01b0393909316608081905260e095909552610100939093524260015561012093909352610140929092526001600160401b031660c05263ffffffff1660a0526002805460ff60a01b19169055610112565b60008060008060008060c087890312156100a057600080fd5b86516020880151604089015191975095506001600160a01b03811681146100c657600080fd5b6060880151608089015191955093506001600160401b03811681146100ea57600080fd5b60a088015190925063ffffffff8116811461010457600080fd5b809150509295509295509295565b60805160a05160c05160e051610100516101205161014051610b0061017960003960006103d40152600061046f0152600061051801526000818160b0015261028c015260006103fa01526000610431015260008181610209015261024b0152610b006000f3fe6080604052600436106100955760003560e01c80634585e33b116100595780634585e33b14610149578063473f1ddc146101695780636e04ff0d1461019b578063c1c244e8146101c9578063e55ae4e8146101de57600080fd5b806309bc33a7146100a15780630ea3df38146100e3578063115cbaf5146100f85780631fe543e31461011f5780632cfcc5391461014157600080fd5b3661009c57005b600080fd5b3480156100ad57600080fd5b507f00000000000000000000000000000000000000000000000000000000000000005b6040519081526020015b60405180910390f35b3480156100ef57600080fd5b506000546100d0565b34801561010457600080fd5b50600254600160a01b900460ff166040516100da91906107b8565b34801561012b57600080fd5b5061013f61013a366004610827565b6101fe565b005b61013f61028a565b34801561015557600080fd5b5061013f6101643660046108d9565b610375565b34801561017557600080fd5b506002546001600160a01b03165b6040516001600160a01b0390911681526020016100da565b3480156101a757600080fd5b506101bb6101b636600461094b565b610510565b6040516100da9291906109e0565b3480156101d557600080fd5b506001546100d0565b3480156101ea57600080fd5b506101836101f9366004610a39565b6105bc565b336001600160a01b037f0000000000000000000000000000000000000000000000000000000000000000161461027c5760405163073e64fd60e21b81523360048201526001600160a01b037f000000000000000000000000000000000000000000000000000000000000000016602482015260440160405180910390fd5b61028682826105eb565b5050565b7f00000000000000000000000000000000000000000000000000000000000000003410156102cb5760405163246b904d60e01b815260040160405180910390fd5b6000600254600160a01b900460ff1660018111156102eb576102eb6107a2565b146103095760405163349289c560e21b815260040160405180910390fd5b600080546001810182558180527f290decd9548b62a8d60345a988386fc84ba6bc95484008f6362f93160ef3e5630180546001600160a01b0319163390811790915560405190917f819fbd717c9d0b421352c5116a644ca68ba176960c33f406f08d98a27370ca2791a2565b600061038f60405180602001604052806000815250610510565b509050806103b057604051638e4bc81760e01b815260040160405180910390fd5b60028054600160a01b60ff60a01b199091161790556040516305d3b1d360e41b81527f000000000000000000000000000000000000000000000000000000000000000060048201527f000000000000000000000000000000000000000000000000000000000000000067ffffffffffffffff166024820152600360448201527f000000000000000000000000000000000000000000000000000000000000000063ffffffff166064820152600160848201526000906001600160a01b037f00000000000000000000000000000000000000000000000000000000000000001690635d3b1d309060a4016020604051808303816000875af11580156104b8573d6000803e3d6000fd5b505050506040513d601f19601f820116820180604052508101906104dc9190610a52565b60405190915081907fcd6e45c8998311cab7e9d4385596cac867e20a0587194b954fa3a731c93ce78b90600090a250505050565b6000606060007f0000000000000000000000000000000000000000000000000000000000000000600154426105459190610a6b565b101590506000600260149054906101000a900460ff16600181111561056c5761056c6107a2565b6000549015915015154715158380156105825750825b801561058b5750815b80156105945750805b60408051808201909152600381526203078360ec1b6020820152909890975095505050505050565b60008082815481106105d0576105d0610a92565b6000918252602090912001546001600160a01b031692915050565b6000805482518390839061060157610601610a92565b60200260200101516106139190610aa8565b9050600080828154811061062957610629610a92565b600091825260208083209190910154600280546001600160a81b0319166001600160a01b03909216918217905560408051848152928301908190529151909350610674929190610728565b50426001556040516001600160a01b038216907fb112587e57bfa970257f3d54fc52859c6300f6bd7a982462c320fed45c2530ed90600090a26000816001600160a01b03164760405160006040518083038185875af1925050503d80600081146106fa576040519150601f19603f3d011682016040523d82523d6000602084013e6106ff565b606091505b50509050806107215760405163a1d04b3960e01b815260040160405180910390fd5b5050505050565b82805482825590600052602060002090810192821561077d579160200282015b8281111561077d57825182546001600160a01b0319166001600160a01b03909116178255602090920191600190910190610748565b5061078992915061078d565b5090565b5b80821115610789576000815560010161078e565b634e487b7160e01b600052602160045260246000fd5b60208101600283106107da57634e487b7160e01b600052602160045260246000fd5b91905290565b634e487b7160e01b600052604160045260246000fd5b604051601f8201601f1916810167ffffffffffffffff8111828210171561081f5761081f6107e0565b604052919050565b6000806040838503121561083a57600080fd5b8235915060208084013567ffffffffffffffff8082111561085a57600080fd5b818601915086601f83011261086e57600080fd5b813581811115610880576108806107e0565b8060051b91506108918483016107f6565b81815291830184019184810190898411156108ab57600080fd5b938501935b838510156108c9578435825293850193908501906108b0565b8096505050505050509250929050565b600080602083850312156108ec57600080fd5b823567ffffffffffffffff8082111561090457600080fd5b818501915085601f83011261091857600080fd5b81358181111561092757600080fd5b86602082850101111561093957600080fd5b60209290920196919550909350505050565b6000602080838503121561095e57600080fd5b823567ffffffffffffffff8082111561097657600080fd5b818501915085601f83011261098a57600080fd5b81358181111561099c5761099c6107e0565b6109ae601f8201601f191685016107f6565b915080825286848285010111156109c457600080fd5b8084840185840137600090820190930192909252509392505050565b82151581526000602060406020840152835180604085015260005b81811015610a17578581018301518582016060015282016109fb565b506000606082860101526060601f19601f830116850101925050509392505050565b600060208284031215610a4b57600080fd5b5035919050565b600060208284031215610a6457600080fd5b5051919050565b81810381811115610a8c57634e487b7160e01b600052601160045260246000fd5b92915050565b634e487b7160e01b600052603260045260246000fd5b600082610ac557634e487b7160e01b600052601260045260246000fd5b50069056fea2646970667358221220ff5e9e56d3eb3cdad858196a92f9c07e6d7b9e1807ebe2b073c7dbfc988ace2864736f6c63430008190033000000000000000000000000000000000000000000000000002386f26fc10000000000000000000000000000000000000000000000000000000000000000001e0000000000000000000000008103b0a8a00be2ddc778e6e7eaa21791cd364625474e34a077df58807dbe9c96d3c009b23b3c6d0cce433e59bbf5b34f823bc56c0000000000000000000000000000000000000000000000000000000000002df4000000000000000000000000000000000000000000000000000000000007a120",
        "nonce": "0x3",
        "chainId": "0xaa36a7"
      },
      "additionalContracts": [],
      "isFixedGasLimit": false
    },
    {
      "hash": "0x4c8f110c86a19b515e65d83d4be071078b9463ba7b909a5d2b063c557e09167f",
      "transactionType": "CALL",
      "contractName": null,
      "contractAddress": "0x8103b0a8a00be2ddc778e6e7eaa21791cd364625",
      "function": "addConsumer(uint64,address)",
      "arguments": [
        "11764",
        "0xefccd9143Bc23cdC5Da30045D57B456d685AEf57"
      ],
      "transaction": {
        "from": "0x71956ae243c8130a52ce35ce5d37a938f93cc06f",
        "to": "0x8103b0a8a00be2ddc778e6e7eaa21791cd364625",
        "gas": "0x20079",
        "value": "0x0",
        "input": "0x7341c10c0000000000000000000000000000000000000000000000000000000000002df4000000000000000000000000efccd9143bc23cdc5da30045d57b456d685aef57",
        "nonce": "0x4",
        "chainId": "0xaa36a7"
      },
      "additionalContracts": [],
      "isFixedGasLimit": false
    }
  ],
  "receipts": [
    {
      "status": "0x1",
      "cumulativeGasUsed": "0x73932e",
      "logs": [
        {
          "address": "0x8103b0a8a00be2ddc778e6e7eaa21791cd364625",
          "topics": [
            "0x464722b4166576d3dcbba877b999bc35cf911f4eaf434b7eba68fa113951d0bf",
            "0x0000000000000000000000000000000000000000000000000000000000002df4"
          ],
          "data": "0x00000000000000000000000071956ae243c8130a52ce35ce5d37a938f93cc06f",
          "blockHash": "0xec54208a7d6b7bebd29e59dafe508663c14844e732c5fe0f7ff34dfa1b6605cd",
          "blockNumber": "0x5add23",
          "transactionHash": "0xb4cf9eb4f15ec6d8ce0299b9dba49daa050b47ab3a270b863785e0032e5fc0ae",
          "transactionIndex": "0x36",
          "logIndex": "0x6c",
          "removed": false
        }
      ],
      "logsBloom": "0x0000000000000000000001000000000000000000000000000000000000000000010000000000000000000000200000000000000000000000000000000000000000000000000000000000000000000000000000000000000000000000000000000008000000000000000000000000000000000000000000000000000000000000000000000c000020000000000000000000000000000000000000000000000000000000000000000000000000000000000000000000000000000000000000000000000000000000200000000000000000000000000000000000000000000000000000000000000000000000000000000000004000000000000000000000000000",
      "type": "0x0",
      "transactionHash": "0xb4cf9eb4f15ec6d8ce0299b9dba49daa050b47ab3a270b863785e0032e5fc0ae",
      "transactionIndex": "0x36",
      "blockHash": "0xec54208a7d6b7bebd29e59dafe508663c14844e732c5fe0f7ff34dfa1b6605cd",
      "blockNumber": "0x5add23",
      "gasUsed": "0xe98a",
      "effectiveGasPrice": "0x2873f436b",
      "from": "0x71956ae243c8130a52ce35ce5d37a938f93cc06f",
      "to": "0x8103b0a8a00be2ddc778e6e7eaa21791cd364625",
      "contractAddress": null
    },
    {
      "status": "0x1",
      "cumulativeGasUsed": "0x74bd78",
      "logs": [
        {
          "address": "0x779877a7b0d9e8603169ddbd7836e478b4624789",
          "topics": [
            "0xddf252ad1be2c89b69c2b068fc378daa952ba7f163c4a11628f55a4df523b3ef",
            "0x00000000000000000000000071956ae243c8130a52ce35ce5d37a938f93cc06f",
            "0x0000000000000000000000008103b0a8a00be2ddc778e6e7eaa21791cd364625"
          ],
          "data": "0x00000000000000000000000000000000000000000000000029a2241af62c0000",
          "blockHash": "0xec54208a7d6b7bebd29e59dafe508663c14844e732c5fe0f7ff34dfa1b6605cd",
          "blockNumber": "0x5add23",
          "transactionHash": "0xe88091c821cacd3bb36990c97528266f67a018f63b470d0e22a82874f536b9f0",
          "transactionIndex": "0x37",
          "logIndex": "0x6d",
          "removed": false
        },
        {
          "address": "0x779877a7b0d9e8603169ddbd7836e478b4624789",
          "topics": [
            "0xe19260aff97b920c7df27010903aeb9c8d2be5d310a2c67824cf3f15396e4c16",
            "0x00000000000000000000000071956ae243c8130a52ce35ce5d37a938f93cc06f",
            "0x0000000000000000000000008103b0a8a00be2ddc778e6e7eaa21791cd364625"
          ],
          "data": "0x00000000000000000000000000000000000000000000000029a2241af62c0000000000000000000000000000000000000000000000000000000000000000004000000000000000000000000000000000000000000000000000000000000000200000000000000000000000000000000000000000000000000000000000002df4",
          "blockHash": "0xec54208a7d6b7bebd29e59dafe508663c14844e732c5fe0f7ff34dfa1b6605cd",
          "blockNumber": "0x5add23",
          "transactionHash": "0xe88091c821cacd3bb36990c97528266f67a018f63b470d0e22a82874f536b9f0",
          "transactionIndex": "0x37",
          "logIndex": "0x6e",
          "removed": false
        },
        {
          "address": "0x8103b0a8a00be2ddc778e6e7eaa21791cd364625",
          "topics": [
            "0xd39ec07f4e209f627a4c427971473820dc129761ba28de8906bd56f57101d4f8",
            "0x0000000000000000000000000000000000000000000000000000000000002df4"
          ],
          "data": "0x000000000000000000000000000000000000000000000000000000000000000000000000000000000000000000000000000000000000000029a2241af62c0000",
          "blockHash": "0xec54208a7d6b7bebd29e59dafe508663c14844e732c5fe0f7ff34dfa1b6605cd",
          "blockNumber": "0x5add23",
          "transactionHash": "0xe88091c821cacd3bb36990c97528266f67a018f63b470d0e22a82874f536b9f0",
          "transactionIndex": "0x37",
          "logIndex": "0x6f",
          "removed": false
        }
      ],
      "logsBloom": "0x0000001400000000000000000000000000000000000000020000000002000000000000000000800020000000200000000000000000000000000000000000000000000000000000000000000800000000000000000000000000002000000000000008000000000000000000000000000000000000400000000000001000000000000000000c000060000000000000800010000020000000000020000000000000000000000000000000000000000000000000000000000000000400000000000000000002000000000000000000000000000000000000000100000000000000000000000000000000000000000000000000004000000000000000000000000000",
      "type": "0x0",
      "transactionHash": "0xe88091c821cacd3bb36990c97528266f67a018f63b470d0e22a82874f536b9f0",
      "transactionIndex": "0x37",
      "blockHash": "0xec54208a7d6b7bebd29e59dafe508663c14844e732c5fe0f7ff34dfa1b6605cd",
      "blockNumber": "0x5add23",
      "gasUsed": "0x12a4a",
      "effectiveGasPrice": "0x2873f436b",
      "from": "0x71956ae243c8130a52ce35ce5d37a938f93cc06f",
      "to": "0x779877a7b0d9e8603169ddbd7836e478b4624789",
      "contractAddress": null
    },
    {
      "status": "0x1",
      "cumulativeGasUsed": "0x7f439c",
      "logs": [],
      "logsBloom": "0x00000000000000000000000000000000000000000000000000000000000000000000000000000000000000000000000000000000000000000000000000000000000000000000000000000000000000000000000000000000000000000000000000000000000000000000000000000000000000000000000000000000000000000000000000000000000000000000000000000000000000000000000000000000000000000000000000000000000000000000000000000000000000000000000000000000000000000000000000000000000000000000000000000000000000000000000000000000000000000000000000000000000000000000000000000000",
      "type": "0x0",
      "transactionHash": "0x1075d5c8bf5c6dbe4edd59b3cf6ce0f62873dfbcdb86280a10e29e04b7008b3d",
      "transactionIndex": "0x38",
      "blockHash": "0xec54208a7d6b7bebd29e59dafe508663c14844e732c5fe0f7ff34dfa1b6605cd",
      "blockNumber": "0x5add23",
      "gasUsed": "0xa8624",
      "effectiveGasPrice": "0x2873f436b",
      "from": "0x71956ae243c8130a52ce35ce5d37a938f93cc06f",
      "to": null,
      "contractAddress": "0xefccd9143bc23cdc5da30045d57b456d685aef57"
    },
    {
      "status": "0x1",
      "cumulativeGasUsed": "0x80b6a2",
      "logs": [
        {
          "address": "0x8103b0a8a00be2ddc778e6e7eaa21791cd364625",
          "topics": [
            "0x43dc749a04ac8fb825cbd514f7c0e13f13bc6f2ee66043b76629d51776cff8e0",
            "0x0000000000000000000000000000000000000000000000000000000000002df4"
          ],
          "data": "0x000000000000000000000000efccd9143bc23cdc5da30045d57b456d685aef57",
          "blockHash": "0xec54208a7d6b7bebd29e59dafe508663c14844e732c5fe0f7ff34dfa1b6605cd",
          "blockNumber": "0x5add23",
          "transactionHash": "0x4c8f110c86a19b515e65d83d4be071078b9463ba7b909a5d2b063c557e09167f",
          "transactionIndex": "0x39",
          "logIndex": "0x70",
          "removed": false
        }
      ],
      "logsBloom": "0x0000000000000000000000000000000000000000000000000000000000000000000000000000000000000000200000000000000000000000000000000000000000000000000000000000000000000000000000000000000000000000000000000008000000008000000000000000000000000000000000000000000000000000000000000c000020000000000000000000000000000000000000000000000000000000000000000000000080000000000000000000000000000000000000000000000000000000000000000000000000000000000000000000020000000000000000000000000000000000000000000000004000000000000000000000000000",
      "type": "0x0",
      "transactionHash": "0x4c8f110c86a19b515e65d83d4be071078b9463ba7b909a5d2b063c557e09167f",
      "transactionIndex": "0x39",
      "blockHash": "0xec54208a7d6b7bebd29e59dafe508663c14844e732c5fe0f7ff34dfa1b6605cd",
      "blockNumber": "0x5add23",
      "gasUsed": "0x17306",
      "effectiveGasPrice": "0x2873f436b",
      "from": "0x71956ae243c8130a52ce35ce5d37a938f93cc06f",
      "to": "0x8103b0a8a00be2ddc778e6e7eaa21791cd364625",
      "contractAddress": null
    }
  ],
  "libraries": [],
  "pending": [],
  "returns": {
    "1": {
      "internal_type": "contract HelperConfig",
      "value": "0xC7f2Cf4845C6db0e1a1e91ED41Bcd0FcC1b0E141"
    },
    "0": {
      "internal_type": "contract Raffle",
      "value": "0xefccd9143Bc23cdC5Da30045D57B456d685AEf57"
    }
  },
  "timestamp": 1716383853,
  "chain": 11155111,
  "commit": "17cfaef"
}